:200000000C94D4130C94FF130C94FF130C94FF130C94FF130C94FF130C94FF130C94FF137B
:200020000C94FF130C94FF130C94FF130C94FF130C94FF130C949F4F0C94FF130C94FF1354
:200040000C94FF130C94D74E0C949BC20C94FF130C94284D0C94524D0C94FF130C94FF13C2
:200060000C94FF130C94FF130C94FF130C94FF130C94FF130C94FF130C94FF130C94FF13F0
:200080000C94FF130C94FF130C94FF137B9BA99BD79BDB9CB3ABB3ABB3ABB3ABB3ABB3ABD3
:2000A000B3ABB3ABB3AB069C4B9C929CB3ABB3ABB3ABB3ABB3ABB3ABB3ABB3ABB3ABB3ABC3
:2000C000B3AB629FC39F23A084A0E5A046A1A7A12BA2B4A6AFA227A39FA314A488A4FCA4BC
:2000E00070A5DCA548A6B3ABB3ABB3ABB3ABB3AB309E989EB3AB0BA77FA7EEA764A88CA897
:20010000E2A81FA95CA9BBA91CAA7BAADAAA06ABB4A8B3ABB3ABB3ABB3ABB3ABB3ABB3AB16
:20012000B3ABB3ABB3ABB3ABB3ABC49DF99DB3ABB3ABB3ABB3ABB3ABB3ABB3ABB3ABB3ABA4
:20014000B3AB579EB3ABB3ABB3AB3FAB7CABB3ABB3ABB3ABB3AB6D9BB3ABB3AB1E9D579D36
:20016000A49DFD9E084AD73B3BCE016E84BCBFFDC12F3D6C74319ABD56833DDA3D00C77FC3
:2001800011BED9E4BB4C3E916BAAAABE000000803F05A84CCDB2D44EB93836A9020C50B940
:2001A000918688083CA6AAAA2ABE000000803F000001000F0015000E001200FEFF1600174C
:2001C000000E001300FFFF030002001A001400FFFF1B00FFFF0D000C000400010000000E8A
:2001E00000070006001F00536574204D6963726F7374657070696E670048656174696E6763
:20020000204265640048656174696E67204578747275646572004649524D574152455F4E76
:20022000414D453A414E45545F41385F32303136303532352020687474703A2F2F777777C0
:200240002E616E657433642E636F6D2F2056455253494F4E3A414E45542056312E30204D7B
:20026000414348494E455F545950453A414E45545F41382045585452554445525F434F5522
:200280004E543A31200044656275673A006F6B000D0A004E414E00494E46004572726F725B
:2002A0003A00496E666F3A005761726E696E673A00526573656E643A004563686F3A006F6B
:2002C0006B200057726F6E6720636865636B73756D004D697373696E6720636865636B73A8
:2002E000756D00466F726D6174206572726F7200446F6E65207072696E74696E6720666969
:200300006C6500205800205900205A00204500204600205300205000204900204A002052AE
:200320000053442072656164206572726F72004572726F723A6578706563746564206C6995
:200340006E65200020676F742000736B69702000424C4B2000737461727400506F77657215
:2003600055700045787465726E616C2052657365740042726F776E206F7574205265736523
:2003800074005761746368646F6720526573657400536F6674776172652052657365740027
:2003A000556E6B6E6F776E20636F6D6D616E643A00467265652052414D3A00583A0020584E
:2003C0003A0020593A00205A3A0020453A00543A0020423A0020403A002054002040002025
:2003E00042403A0020524157003A002F00202F0053706565644D756C7469706C793A0046AE
:200400006C6F774D756C7469706C793A0046616E73706565643A005072696E746564206634
:20042000696C616D656E743A005072696E74696E672074696D653A006D20002064617973E6
:20044000200020686F7572732000206D696E00496E76616C696420617263002C00200059E5
:200460003A005A3A0045303A0045313A004D53312C4D53322050696E7300536574206F7596
:2004800074707574200020746F20004820004C2000785F6D696E3A00785F6D61783A007953
:2004A0005F6D696E3A00795F6D61783A007A5F6D696E3A007A5F6D61783A004A65726B3A91
:2004C00000205A4A65726B3A00206C696E6561722073746570733A002071756164726174A6
:2004E00069632073746570733A002C2073706565643D00454550524F4D20757064617465A2
:2005000064006C696E656172204C3A0020717561647261746963204B3A005461726765746C
:2005200045787472005461726765744265643A00504944204175746F74756E6520737461B2
:2005400072740020626961733A200020643A2000206D696E3A2000206D61783A2000204BD5
:20056000753A20002054753A200020436C61737369632050494400204B703A2000204B6981
:200580003A2000204B643A2000504944204175746F74756E65206661696C65642120546507
:2005A0006D706572617475726520746F206869676800504944204175746F74756E652066CB
:2005C00061696C6564212074696D656F757400504944204175746F74756E652066696E69BC
:2005E00073686564202120506C61636520746865204B702C204B6920616E64204B64206330
:200600006F6E7374616E747320696E2074686520436F6E66696775726174696F6E2E6820DA
:200620006F7220454550524F4D004D54454D503A00686561746564206265640065787472BB
:200640007564657220003A2074656D702073656E736F7220646566656374003A20776F72C3
:200660006B696E67005072696E7465722073657420696E746F206472792072756E206D6FC7
:20068000646520756E74696C207265737461727421004175746F6C6576656C696E6720658B
:2006A0006E61626C6564004175746F6C6576656C696E672064697361626C6564005A2D7096
:2006C000726F6265206661696C6564005A2D70726F6265206D61783A005072696E746572CA
:2006E000206865696768743A0077616974004175746F6C6576656C206163746976652028DD
:20070000312F302900436F6E66696775726174696F6E2073746F72656420746F204545501A
:20072000524F4D2E00436F6E66696775726174696F6E206C6F616465642066726F6D204583
:200740004550524F4D2E00436F6E66696775726174696F6E20726573657420746F20646561
:200760006661756C74732E0050726F746F636F6C2076657273696F6E206368616E6765645A
:200780002C20757067726164696E6700457874722E004550523A3020004550523A31200098
:2007A0004550523A3220004550523A33200042617564726174650046696C616D656E7420DA
:2007C0007072696E746564205B6D5D005072696E74657220616374697665205B735D004DC6
:2007E00061782E20696E6163746976652074696D65205B6D732C303D6F66665D0053746FEE
:2008000070207374657070657220616674657220696E6163746976697479205B6D732C30F8
:200820003D6F66665D005820686F6D6520706F73205B6D6D5D005920686F6D6520706F730A
:20084000205B6D6D5D005A20686F6D6520706F73205B6D6D5D0058206D6178206C656E671B
:200860007468205B6D6D5D0059206D6178206C656E677468205B6D6D5D005A206D617820F7
:200880006C656E677468205B6D6D5D0058206261636B6C617368205B6D6D5D005920626185
:2008A000636B6C617368205B6D6D5D005A206261636B6C617368205B6D6D5D004D61782E57
:2008C000206A65726B205B6D6D2F735D004D61782E205A2D6A65726B205B6D6D2F735D00FD
:2008E000582D6178697320737465707320706572206D6D00592D6178697320737465707384
:2009000020706572206D6D005A2D6178697320737465707320706572206D6D00582D61782C
:200920006973206D61782E206665656472617465205B6D6D2F735D00592D61786973206DCB
:2009400061782E206665656472617465205B6D6D2F735D005A2D61786973206D61782E20EC
:200960006665656472617465205B6D6D2F735D00582D6178697320686F6D696E672066651C
:20098000656472617465205B6D6D2F735D00592D6178697320686F6D696E672066656564FD
:2009A00072617465205B6D6D2F735D005A2D6178697320686F6D696E6720666565647261D2
:2009C0007465205B6D6D2F735D00582D6178697320616363656C65726174696F6E205B6DBE
:2009E0006D2F735E325D00592D6178697320616363656C65726174696F6E205B6D6D2F73BF
:200A00005E325D005A2D6178697320616363656C65726174696F6E205B6D6D2F735E325DBF
:200A200000582D617869732074726176656C20616363656C65726174696F6E205B6D6D2F40
:200A4000735E325D00592D617869732074726176656C20616363656C65726174696F6E2023
:200A60005B6D6D2F735E325D005A2D617869732074726176656C20616363656C6572617404
:200A8000696F6E205B6D6D2F735E325D004F5053206F7065726174696F6E206D6F64652064
:200AA0005B303D4F66662C313D436C61737369632C323D466173745D004F5053206D6F760D
:200AC000652061667465722078252072657472616374205B255D004F5053206D696E2E200C
:200AE00064697374616E636520666F722066696C2E2072657472616374696F6E205B6D6D0B
:200B00005D004F50532072657472616374696F6E206C656E677468205B6D6D5D004F5053E5
:200B20002072657472616374696F6E206261636B6C617368205B6D6D5D0042656420486577
:200B40006174204D616E61676572205B302D335D0042656420504944206472697665206DAE
:200B600061780042656420504944206472697665206D696E004265642050494420502D67EA
:200B800061696E004265642050494420492D6761696E004265642050494420442D67616916
:200BA0006E0042656420504944206D61782076616C7565205B302D3235355D00737465708F
:200BC0007320706572206D6D006D61782E206665656472617465205B6D6D2F735D00737432
:200BE000617274206665656472617465205B6D6D2F735D00616363656C65726174696F6E10
:200C0000205B6D6D2F735E325D0068656174206D616E61676572205B302D335D005049440E
:200C2000206472697665206D617800504944206472697665206D696E0050494420502D67B8
:200C400061696E2F646561642D74696D650050494420492D6761696E0050494420442D67DC
:200C600061696E00504944206D61782076616C7565205B302D3235355D00582D6F666673B8
:200C80006574205B73746570735D00592D6F6666736574205B73746570735D0074656D70AA
:200CA0002E2073746162696C697A652074696D65205B735D0074656D702E20666F72207228
:200CC000657472616374696F6E207768656E2068656174696E67205B435D00646973746149
:200CE0006E636520746F2072657472616374207768656E2068656174696E67205B6D6D5D22
:200D000000657874727564657220636F6F6C6572207370656564205B302D3235355D006159
:200D20006476616E6365204B205B303D6F66665D00616476616E6365204C205B303D6F665C
:200D4000665D00534420436172642072656D6F766564005344204361726420696E7365721B
:200D600074656400534420696E6974206661696C006572726F722077726974696E6720742D
:200D80006F2066696C6500426567696E2066696C65206C69737400456E642066696C6520AC
:200DA0006C6973740046696C65206F70656E65643A002053697A653A0046696C65207365B5
:200DC0006C65637465640066696C652E6F70656E206661696C6564005344207072696E74B9
:200DE000696E67206279746520004E6F74205344207072696E74696E67006F70656E206616
:200E000061696C65642C2046696C653A200057726974696E6720746F2066696C653A2000AC
:200E2000446F6E6520736176696E672066696C652E0046696C652064656C657465640044DB
:200E4000656C6574696F6E206661696C6564004469726563746F7279206372656174656470
:200E6000004372656174696F6E206661696C6564005344206572726F72436F64653A00071B
:200E800001061C151C143A00002243141F1FA80E180F6C0FDC0F2C100000000014119C11A8
:200EA000A812F812741300000000A00F5C006009690010097900C0088C007008A2002008E2
:200EC000BD00D007DE008007050130073401E0066D019006B20140060702F0056D02A005B2
:200EE000E80250057B0300052B04B004F8046004EB06C003350920037F0B8002650DE00179
:200F0000B00E40011D0FF000480FC8006C0FA000ED0F60FFFE0F48FE0400801AD8009808B8
:200F2000AC012007800250065403C80528045805FC040005D005B004A40668047807280409
:200F40004C08E8032009B003F4097003C80A38039C0BF802700CB002440D6802180E08023F
:200F6000EC0E8801C00F8800F00F00000400001B54006009640010097400C0088400700807
:200F80009C002008B800D007D8008007000130072C01E00668019006AC0140060002F0056B
:200FA0006802A005E0025005740300052404B004F0046004DC051004E406C003040870031A
:200FC00030092003780B8002600DE001A80E4001680FA000C00F0000E80F60FF0400700DAE
:200FE000D8004804AC0158038002D8025403800228043802FC040002D005C801A406980147
:20100000780770014C08480120091801F409F000C80AC8009C0BA000700C7000440D3800BE
:20102000180E0000EC0EA8FFC00FE8FE380060093B003809400010094600E8084C00C00874
:201040005200980859007008620048086C0020087600F8078000D0079100A8079C00800758
:20106000A8005807BB003007D0000807E300E006F800B806100190062D016806500140063F
:20108000720118069001F005C201C805EC01A0052802780567025005B2022805EE020005DC
:2010A0003E03D8049803B004F20388045E046004BF04380432051004B405E8033A06C0038C
:2010C000D80698036C077003F8074803980820033909F802D409D0026F0AA8020F0B8002FA
:2010E0009F0B58022B0C3002B30C08022F0DE001980DB801FC0D90014C0E68019C0E4001F7
:201100001D0FF000480FC8006C0FA000ED0F60FFFE0F48FE0000401F450060094F00100956
:201120005C00C0086B0070087D0020089200D007AC008007CC003007DE00E00623019006E6
:201140005E014006A601F005FF01A0056D025005F30200059603B0045A0460044005100483
:201160004806C0036E077003A8082003EB09D002230B8002410C3002390DE001040E9001E4
:20118000A20E4001170FF000690FA000A20F5000C60F0000DD0FB0FFEB0F60FF0400681DDD
:2011A0004C00500B94005809DC0050082401A8076C012807B401C006FC017006440228068D
:2011C0008C02F005D402B8051C03880564035805AC033005F40310053C04E8048404C80419
:2011E000CC04A804140590045C057004A4055804EC053804340620047C060804C406F00316
:201200000C07D8035407C8039C07B003E40798032C08800374087003BC08580304094803C1
:201220004C09300394091803DC090803240AF0026C0AE002B40AC802FC0AB002440BA002D5
:201240008C0B8802D40B70021C0C5802640C4002AC0C2802F40C10023C0DF001840DD80150
:20126000CC0DB801140E98015C0E7001A40E4801EC0E1801340FD8007C0F8800C40F08002F
:20128000FC0F00000000000000000000000000000000000000000000000000000000000043
:2012A000000000000000000004000016D800C006AC0178058002C004540348042804E8034C
:2012C000FC049803D0055003A40618037807D8024C08A80220097002F4093802C80A080281
:2012E0009C0BD001700C9001440D5001180EF800EC0E8800C00F00000400401D90006009FE
:201300001C01B007A801D00634023806C002C8054C036805D80318056404D804F0049804EF
:201320007C05600408063004940600042007D003AC07A80338088003C4085803500930031A
:20134000DC090803680AE002F40AB802800B88020C0C6002980C3002240DF801B00DC00184
:201360003C0E8001C80E3001540FB800B40F2800E00F00000400081D900058091C01B007B8
:20138000A801C80634023006C002C0054C036805D80318056404D004F00498047C0560047E
:2013A00008063004940600042007D003AC07A80338088003C408580350093003DC0908038F
:2013C000680AD802F40AB002800B88020C0C6002980C3002240DF801B00DC0013C0E800139
:2013E000C80E3001540FB800B40F2800E00F00005344206572726F7220666978656400538D
:2014000044206572726F7220646964206E6F74207265636F76657221005344205265616412
:20142000204572726F720042696E6172793A00436F6D6D616E6442756666657200000000CA
:201440000000000000000000000000000024F403D950C38EB1C2A23D96828B3582127AE3DC
:2014600072816CCB66A861015DC758EB546151204E1E4B5648C14559431A41013F093D2F3E
:201480003B7139CD374036C93465331432D430A32F802E6B2D632C672B752A8E29B028DCCB
:2014A0002710274B268F25D9242B248223E0224322AC211A218D200420801F001F841E0C0C
:2014C0001E971D261DB81C4E1CE61B821B201BC11A641A0A1AB2195D190A19B9186A181C90
:2014E00018D11788174017FA16B51673163116F115B31576153A150015C7148F1458142282
:2015000014EE13BA13881356132513F612C71299126C1240121512EB11C1119811701148EA
:20152000112111FB10D610B1108D106910461024100210E10FC00FA00F800F610F420F2323
:201540000F060FE80ECB0EAF0E930E770E5C0E410E270E0D0EF30DDA0DC10DA80D900D782D
:201560000D600D490D320D1B0D050DEF0CD90CC30CAE0C990C850C700C5C0C480C350C21E9
:201580000C0E0CFB0BE80BD60BC40BB20BA00B8E0B7D0B6B0B5A0B4A0B390B290B180B0820
:2015A0000BF80AE90AD90ACA0ABB0AAC0A9D0A8E0A800A710A630A550A470A390A2C0A1E01
:2015C0000A110A040AF709EA09DD09D009C409B709AB099F09920987097B096F0963095852
:2015E000094C09410936092B09200915090A090009F508EB08E008D608CC08C208B808AEAB
:2016000008A4089A08900887087D0874086B08610858084F0846083D0834082C0823081A71
:2016200008120809080108F807F007E807E007D807D007C807C007B807B007A807A1070089
:2016400000420FA1071605D0030D038B022E02E801B2018601630145012C0117010401F4CB
:201660000049646C6500486F6D65205A00486F6D65205900486F6D652058005374657070DA
:2016800065722044697361626C6564004B696C6C65640055706C6F6164696E672E2E2E00B9
:2016A0005344207072696E742073746F7070656420627920757365722E0046696E64206915
:2016C0006E69742E672066696C6520696E205344434152442C20737461727420746F207095
:2016E00072696E742E2E2E0000002110422063308440A550C660E770088129914AA16BB1FD
:201700008CC1ADD1CEE1EFF13112100273325222B5529442F772D662399318837BB35AA3F1
:20172000BDD39CC3FFF3DEE36224433420040114E664C774A44485546AA54BB52885099531
:20174000EEE5CFF5ACC58DD55336722611163006D776F6669556B4465BB77AA71997388771
:20176000DFF7FEE79DD7BCC7C448E5588668A7784008611802282338CCC9EDD98EE9AFF9A1
:20178000488969990AA92BB9F55AD44AB77A966A711A500A333A122AFDDBDCCBBFFB9EEBF1
:2017A000799B588B3BBB1AABA66C877CE44CC55C222C033C600C411CAEED8FFDECCDCDDD31
:2017C0002AAD0BBD688D499D977EB66ED55EF44E133E322E511E700E9FFFBEEFDDDFFCCF71
:2017E0001BBF3AAF599F788F8891A981CAB1EBA10CD12DC14EF16FE18010A100C230E3205D
:201800000450254046706760B9839893FBA3DAB33DC31CD37FE35EF3B1029012F322D232F0
:201820003542145277625672EAB5CBA5A89589856EF54FE52CD50DC5E234C324A014810430
:201840006674476424540544DBA7FAB79987B8975FE77EF71DC73CD7D326F2369106B01670
:2018600057667676154634564CD96DC90EF92FE9C899E9898AB9ABA94458654806782768A0
:20188000C018E1088238A3287DCB5CDB3FEB1EFBF98BD89BBBAB9ABB754A545A376A167AF0
:2018A000F10AD01AB32A923A2EFD0FED6CDD4DCDAABD8BADE89DC98D267C076C645C454C30
:2018C000A23C832CE01CC10C1FEF3EFF5DCF7CDF9BAFBABFD98FF89F176E367E554E745E70
:2018E000932EB23ED10EF01E7C3C3E5E2B3D3F2F5B5D3B2C2A225C004E6F206572726F7252
:2019000020666F756E642E0043616E2774206F70656E20726F6F74206469726563746F727E
:20192000792E00496E76616C696420666F726D61742C207265666F726D61742053442E00FF
:201940004E6F20636172642C2077726F6E6720636869702073656C6563742070696E2C2080
:201960006F72205350492070726F626C656D3F0043616E2774206163636573732053442014
:20198000636172642E20446F206E6F74207265666F726D61742E000001FF00FF000001018C
:2019A0000000FF00FF01004B65794E6F203D2000416374696F6E3A256C61000310270200FF
:2019C000831B0310270200871B01000001008B1B02000008008D1B03ED0304009D1B03EE91
:2019E000030400A51B03EF030400AD1B03FA030400B51B03FB030400BD1B03FC030400C5E3
:201A00001B0200000900CD1B0200000600DF1B0200000C00EB1B5265717565737450617593
:201A200073653A004E6F205344204361726400436F6F6C646F776E00507265686561742058
:201A4000414253005072656865617420504C41008025000040380000004B00008070000092
:201A600000960000C0DA000000E10000002C010008B2010000C2010000F40100008403002E
:201A800090D0030000E803000008070020A1070000100E0040420F0060E316000000000019
:201AA0000200000900031C151C1C1C231C2A1C4F6E004F666600596573004E6F0003000441
:201AC000004E2F4100003A002064617973200041380042616E6742616E6700536C6F7742CD
:201AE000616E6700446561642054696D6500504944005072696E74696E672E2E2E0020645D
:201B0000656620000000003FCDCC4C3D0AD7A33B6F12033A4F4D4E49203344205052494ED9
:201B2000544552200057454C434F4D4520544F204F4D4E49004138005072696E74657220FB
:201B400072656164792E0000401454040E15041C000000040A040000000000001F1F1F1FC5
:201B60001F0000001F1111111F0000040A0A0A0E1F1F0E001C1F11111F0000001F15111583
:201B80001F1F00311C381C3F1C461C4D1C4D1C541C5B1C621C691C701C771C7E1C851C8C07
:201BA0001C931C9A1CA11CA81CAF1CB61CBD1CC41CCB1CD21CD91CE01CE71CEE1CF51CFCED
:201BC0001C031D0A1D111D181D1F1D261D4D1C2D1D341D3B1D421D491D501D571D5E1D4DF6
:201BE0001C651D6C1D731D7A1D811D4D1C2D1D881D8F1D961D9D1DA41DAB1DB21DB91DC09A
:201C00001D7A1D4D1CC71D541CCE1DD51DDC1DE31DEA1DF11D0000000400F81D000000044B
:201C200000001E0000000400081E0000000400101E181E0000000000261E00000000003779
:201C40001E0000000000451E0000000000561E03E80300005D1E03F5030102681E03F603A6
:201C60000204741E03540402007F1E03F70304008E1E03F80301009B1E03F9030001A61EA9
:201C800003F4030102B21E0000000000BB1E0000000000CB1E0000000000DB1E00000000BC
:201CA00000DC1E0000000000E51E0000000000F51E0000000000051F0000000000061F00CB
:201CC000000000000F1F00000000001F1F00000000002F1F0000000000301F0000000000FB
:201CE000391F0000000000491F0000000000591F00000000005A1F0000000000631F0000B1
:201D0000000000731F0000000000831F0000000000841F00000000008D1F00000000009DA3
:201D20001F0000000000AD1F0000000000AE1F03FD030010B71F041F040000C91F044804A3
:201D40000000DB1F0337040000E71F0347040000F31F0338040000FC1F03310400100A2019
:201D600003420400101A20043C0400002A20043D0400003A20033A0400004920025820007F
:201D8000005F2003430400006A2003FE030010712003FF030010782003000400107F2002E6
:201DA000EC1900008B2002D7190000962002F3190000A22002DE190000AD2002FA19000020
:201DC000B92002E5190000C42002011A0000D320020F1A0000DC2002081A0000E52002EFF5
:201DE000200000F62002D0190000FE2002082100000F21021D21000024212B2132213921CB
:201E0000402147214E2155215C2163216A21712178217F2186218D21436F6E66696775722B
:201E20006174696F6E0073746F72656420696E20454550524F4D00436F6E66696775726179
:201E400074696F6E006C6F6164656420662E20454550524F4D004261636B20010050726906
:201E60006E742066696C65005061757365205072696E740053746F70205072696E7400437F
:201E80006F6E74696E7565205072696E7400556E6D6F756E742043617264004D6F756E7470
:201EA00020436172640044656C6574652066696C6500583A257830206D6D004D696E206573
:201EC0006E6473746F703A257378004D617820656E6473746F703A2573580000593A257883
:201EE00031206D6D004D696E20656E6473746F703A257379004D617820656E6473746F70E8
:201F00003A25735900005A3A257832206D6D004D696E20656E6473746F703A25737A004D5F
:201F2000617820656E6473746F703A25735A0000583A257830206D6D004D696E20656E64AB
:201F400073746F703A257378004D617820656E6473746F703A2573580000593A2578312083
:201F60006D6D004D696E20656E6473746F703A257379004D617820656E6473746F703A2559
:201F8000735900005A3A257832206D6D004D696E20656E6473746F703A25737A004D617865
:201FA00020656E6473746F703A25735A0000486F6D6520416C6C005370656564204D756CD7
:201FC0002E3A256F6D25252500466C6F77204D756C2E203A256F662525250050726568655E
:201FE000617420504C4100507265686561742041425300436F6F6C646F776E0053657420BF
:20200000746F204F726967696E0044697361626C652073746570706572004265642054659A
:202020006D702E3A25456202430054656D702E203020203A25453002430045787472756461
:2020400065722030204F666600457874722E20706F736974696F6E0003F0030200942153B8
:202060006574204F726967696E00486F6D65205800486F6D65205900486F6D65205A0058A1
:2020800020506F732E2046617374005820506F736974696F6E005920506F732E2046617332
:2020A00074005920506F736974696F6E005A20506F732E2046617374005A20506F736974CD
:2020C000696F6E00517569636B2053657474696E677300506F736974696F6E004578747254
:2020E000756465720046616E2073706565640002000007009821534420436172640044654E
:2021000062756767696E67000200000500A621436F6E66696775726174696F6E00020000B4
:202120000700B021BE210000000000D1210000000000E1210000000000F5210000000000DE
:20214000F9210000000000022200000000000B2200000000001422000000000018220000A4
:20216000000000292200000000002A2200000000003A2200000000003E2200000000004CC0
:20218000220000000000502200000000006122000000000067226E224D1C75227C228322CC
:2021A0008A22912298224D1C9F22A622AD22B4224D1CBB22C222C922D022D722DE22052545
:2021C00065632F25456302072565422F25456202005A3A2578322020427566203A256F4279
:2021E000004D756C3A256F6D20202020466C6F773A256F6600256F7300583A257830206D37
:202200006D00593A257831206D6D005A3A257832206D6D00256F730045313A2565302F25D4
:20222000453002437E256F300000423A2565622F25456202437E256F6200256F73005072BD
:20224000696E74696E672074696D65002555740046696C616D656E74207072696E746564F2
:2022600000255566206D00E5220000000000EE220000000000FD2204520400000E23031A13
:202280000408001B23031B0400002923031C0400003723031D0400004523031E0400005206
:2022A0002303320400005E2303330400006A230334040000762303350400008223028A2316
:2022C00000009123029E230000A52302AE230000B52302BE230000C5230306040000D52344
:2022E0000307040000453A257833206D6D003120636C69636B203D2031206D6D0046616E73
:202300002073706565643A254673252525005475726E2046616E204F66660053657420465A
:20232000616E203235252525005365742046616E203530252525005365742046616E2037CB
:2023400035252525005365742046616E2046756C6C004563686F2020203A25646F00496EFD
:20236000666F2020203A256469004572726F7273203A256465004472792072756E3A2564D0
:20238000640047656E6572616C000200000400E423416363656C65726174696F6E00020042
:2023A000000900EC234665656472617465000200000700FE23457874727564657200020066
:2023C000000F000C2453746F726520746F20454550524F4D004C6F616420662E2045455098
:2023E000524F4D004D1C2A24312438244D1C3F2446244D2454245B246224692470244D1CD9
:2024000077247E2485248C2493249A244D1CA124A824AF24B624BD24C424CB24D224D9245F
:20242000E024E724EE24F524FC240325041004000010250221250000282502362500003D9E
:20244000250408040000492504090400005525040A0400006125040B0400006D25040C04FD
:2024600000007925040D0400008525040E0400009125040F0400009D250414040000A72572
:202480000415040000B1250416040000BB250411040000C6250412040000D125041304001C
:2024A00000DC250429040000E925042C040000F625042B0400000126042A0400000B2604CC
:2024C0002E0400001926044D0400002C26044C0400003D26042D040000492604220400005F
:2024E00056260423040000602604240400006A260425040000782604260400008626042F1B
:2025000004000042617564726174653A256F63005374657070657220496E61637469766528
:2025200000032004020092264D61782E20496E6163746976650003580402009626507269CB
:202540006E7420583A256178005072696E7420593A256179005072696E74205A3A25617A69
:20256000004D6F76652058203A256158004D6F76652059203A256159004D6F7665205A209A
:202580003A25615A004A65726B2020203A25616A005A2D4A65726B203A25614A004D6178A8
:2025A00020583A256678004D617820593A256679004D6178205A3A25667A00486F6D652001
:2025C000583A25665800486F6D6520593A25665900486F6D65205A3A25665A0053746570A8
:2025E000732F4D4D3A2553650053746172742046523A255866004D61782046523A255846CA
:2026000000416363656C3A25584100537461622E54696D653A255877005761697420556EFD
:202620006974733A20255855206D6D00576169742054656D702E20255854024300436F6E55
:2026400074726F6C3A2558680044542F50494420503A2558700050494420493A25586900F9
:2026600050494420443A255864004472697665204D696E3A25586D004472697665204D61D4
:20268000783A25584D00504944204D61783A255844009A26A126A826AF26B626000000009A
:2026A00000C5260000000000CF260000000000DE2600000000004469732E204166746572D6
:2026C0003A256973005B735D20303D4F6666004469732E2041667465723A256970005B7386
:2026E0005D20303D4F66660000002100240027002A0000002200250028002B000000200085
:202700002300260029000202020202020202040404040404040403030303030303030101FD
:202720000101010101010102040810204080010204081020408001020408102040808040D6
:20274000201008040201000000010200000000000000040307060000000000000000000023
:20276000000000000000494E46494E4954594E414ECDCCCC3D0AD7233C17B7D13877CC2BEB
:20278000329595E6241FB14F0A000020410000C84200401C4620BCBE4CCA1B0E5AAEC59D5A
:2027A0007400934E3A79B69911241FBECFEFD0E4DEBFCDBF12E0A0E0B1E0ECE7F4E901E081
:2027C0000BBF02C007900D92A236B107D9F71BBE10E1A2E6B2E001C01D92AD3BB107E1F70B
:2027E00017E2C8EAD7E204C02297FE010E94EEC9C23AD107C9F70E94CAC40C943CCA0C9496
:202800000000CF93DF93BC018230910510F462E070E0A091B910B091BA10ED01E0E0F0E0C6
:2028200040E050E021C0888199818617970769F48A819B81309719F09383828304C09093B3
:20284000BA108093B910FE0134C06817790738F44115510519F08417950708F4AC01FE0120
:202860008A819B819C01E9012097E9F641155105A9F1CA01861B970B049708F4BA01E0E0AE
:20288000F0E02AC08D919C91119784179507F9F46417750781F412968D919C911397309797
:2028A00019F09383828304C09093BA108093B910FD0132964CC0CA01861B970BFD01E80F92
:2028C000F91F6193719302978D939C9340C0FD01828193819C01D9011097A1F68091B7105E
:2028E0009091B810892B41F480911401909115019093B8108093B710409116015091170103
:202900004115510541F44DB75EB78091120190911301481B590B2091B7103091B810CA01D1
:20292000821B930B8617970780F0AB014E5F5F4F8417950750F0420F531F5093B8104093F2
:20294000B710F9016193719302C0E0E0F0E0CF01DF91CF910895CF93DF93009709F450C0B7
:20296000EC0122971B821A82A091B910B091BA10109709F140E050E0AC17BD0708F1BB83C4
:20298000AA83FE0121913191E20FF31FAE17BF0779F48D919C911197280F391F2E5F3F4FFF
:2029A0003983288312968D919C9113979B838A834115510571F4D093BA10C093B91020C0AE
:2029C00012968D919C911397AD01009711F0DC01D3CFFA01D383C28321913191E20FF31F88
:2029E000CE17DF0769F488819981280F391F2E5F3F4FFA01318320838A819B81938382834E
:202A0000DF91CF910895A0E0B0E0E9E0F5E10C940BCAEC015B016115710519F0FB019183D7
:202A20008083F9908F2D90E00E94F2C9892BC9F7FDE2FF1621F4F990EE24E39405C02BE220
:202A4000F21609F4F990EE248E0101501040C80166E677E243E050E00E949217892B01F5F0
:202A60008E010E5F1F4FC80169E677E245E050E00E949217892B19F48E01095F1F4FA11400
:202A8000B10419F0F50111830083E0FC04C070E090E080E814C070E090E080E86FEF08C180
:202AA000C8016EE677E243E050E00E949217892B69F4A114B10429F470E090E080EC6FE7E8
:202AC000F7C02296F501D183C083F6CF8824992440E050E060E070E0EF2DE053EA30A0F5EE
:202AE000F2E0EF2A8E2D90E09C0128703070E2FE06C0232B79F50894811C911C2BC0232B6A
:202B000019F0089481089108DB01CA0112E0880F991FAA1FBB1F1A95D1F7480F591F6A1F94
:202B20007B1F440F551F661F771F4E0F511D611D711D483929E9520729E9620729E1720758
:202B400048F084E0E82A06C0EE3F31F4E3FC39C098E0E92AF990C0CFE53311F0E53189F587
:202B600029912D3219F4E0E1EE2A05C02B3219F081E090E003C0299182E090E0E22FE053C7
:202B8000EA3018F0C81BD90B1CC020E030E0FCE020383F075CF4C901880F991F880F991F2E
:202BA000280F391F220F331F2E0F311DE991E053EA3068F3E4FE03C0309521953F4F820E18
:202BC000931ECE2CDD24E1FE07C0A114B10421F02197F501D183C083CB01BA010E946AC68A
:202BE0007B018C01F3E0CF22DD2423E0C216D10421F417FB109517F9109557016801C8014C
:202C0000B70120E030E040E050E00E94CAC5882309F44AC097FE0DC025E8E22E27E2F22E11
:202C20009094819491089394C0E2D0E000E010E012C09DE9E92E97E2F92EF6CFF7012591F7
:202C4000359145915491C601B5010E947AC85B016C018C1A9D0A8C169D0684F7D595C795F6
:202C60000F5F1F4F0630110529F08CEF9FEFE80EF91EF1CFC501D6017C018D018C2D880F45
:202C80008D2D881F8F3F51F0C601B50120E030E040E050E00E94CAC5882331F482E290E012
:202CA0009093BC108093BB107E2D9F2D802F612F272F392F482F562FB901CA01CDB7DEB739
:202CC000ECE00C9427CA2F923F925F926F927F928F929F92AF92BF92CF92DF92EF92FF923A
:202CE0000F931F93CF93DF938C011B01EA016115710519F0FB0191838083209749F0CE0151
:202D00000297839728F020E030E040E050E0F6C0F801A1908F018A2D90E00E94F2C9892BE0
:202D2000B9F7FDE2AF1631F4F801A1908F015524539407C0FBE2AF1619F4F801A1908F01D0
:202D40005524209719F0C031D105C1F4F0E3AF1679F4F8018081883711F0883549F4F8010C
:202D6000A1800E5F1F4FF2E05F2AC0E1D0E006C0209721F480E3A816E9F427C0C830D10566
:202D800031F1C930D10524F4C230D10531F50CC0CA30D10589F0C031D105F9F4C12CD12C89
:202DA000E12CB8E0FB2E28C0C12CD12CE12CA0E4FA2E22C0CAE0D0E0FCECCF2EFCECDF2EA4
:202DC000FCECEF2EFCE0FF2E17C0C8E0D0E0C12CD12CE12CE0E1FE2E0FC09E01442737FDC5
:202DE0004095542F60E070E080E090E80E94A3C9C901DA016C017D0120E030E040E050E015
:202E000060E03E01882477FC8094982C70EDB72EBA0CE9E0EB1570F48A2D81548A3118F4B4
:202E200099ECB92E06C08A2D81568A3150F589EAB82EBA0C8B2D90E08C179D0714F56F3F8D
:202E4000E1F0C216D306E406F506B0F0CA01B901A40193010E9450C99B01AC012B0D311D23
:202E6000411D511D2130F0E03F07F0E04F07F0E85F0710F461E001C06FEFF801A1908F019D
:202E8000C5CF2114310481F0662331F001501040F1011183008308C051FE1AC002501040DC
:202EA000F1011183008314C067FF12C050FC05C02FEF3FEF4FEF5FE704C020E030E040E028
:202EC00050E882E290E09093BC108093BB1016C050FE08C050954095309521953F4F4F4FCC
:202EE0005F4F0CC057FF0AC082E290E09093BC108093BB102FEF3FEF4FEF5FE7B901CA0142
:202F0000DF91CF911F910F91FF90EF90DF90CF90BF90AF909F908F907F906F905F903F900D
:202F20002F900895FB01DC014150504088F08D9181341CF08B350CF4805E659161341CF0AF
:202F40006B350CF4605E861B611171F3990B0895881BFCCFFB01DC0102C001900D92415091
:202F60005040D8F70895FB01DC010D900020E9F7119701900D920020E1F70895FC01819163
:202F8000861721F08823D9F7992708953197CF010895FB01DC018D91019080190110D9F378
:202FA000990B0895FB01DC0101900D920020E1F70895FB01DC014150504048F001900D92D0
:202FC0000020C9F701C01D9241505040E0F70895FC0181E090E00190061609F4CF010020A4
:202FE000D1F701970895A0E0B0E0E9EFF7E10C940FCA7C01EB018A01690109C0CE012196EE
:20300000F6010995F70181937F010150104001151105A1F7CDB7DEB7E8E00C942BCABF9263
:20302000CF92DF92EF92FF920F931F937B018C01FB010995B82EC8010196F7010995C82EE3
:20304000C8010296F7010995D82EC8010396F7010995982F6B2D7C2D8D2D1F910F91FF90DA
:20306000EF90DF90CF90BF900895DF92EF92FF920F931F937B018C01FB010995D82EC801CE
:203080000196F7010995982F8D2D1F910F91FF90EF90DF900895A0E0B0E0E1E5F8E10C94C9
:2030A0000FCAEC017B018A01690109C0CE012196F70161917F01F6010995015010400115D4
:2030C0001105A1F7CDB7DEB7E8E00C942BCABF92CF92DF92EF92FF920F931F93D52EC62E4C
:2030E000B72E79018C01642FF9010995C80101966D2DF7010995C80102966C2DF701099599
:20310000C80103966B2DF70109951F910F91FF90EF90DF90CF90BF900895DF92EF92FF9284
:203120000F931F93D72E7A018C01FA010995C80101966D2DF70109951F910F91FF90EF90A7
:20314000DF9008959C01F999FECF32BD21BDF89A80B5089508956091180170911901809163
:203160001A0190911B016817790744F470931B0160931A0181EB93E00E94C4290895BC01CB
:20318000893191051CF469E170E005C0893C910514F068EC70E07093710C6093700C8FEF00
:2031A00093E00E94C4290895EF92FF920F931F93CF93DF93EC01893191051CF4C9E1D0E08F
:2031C00006C081E0C53FD80714F0C4EFD1E0BE01882777FD8095982F0E946CC67B018C01E2
:2031E00060916E0C70916F0C882777FD8095982F0E946CC69B01AC01C801B7010E94D1C513
:203200009B01AC0160916A0C70916B0C80916C0C90916D0C0E947AC860936A0C70936B0C9C
:2032200080936C0C90936D0CD0936F0CC0936E0C80EF93E0BE010E94C429DF91CF911F910C
:203240000F91FF90EF9008950E9447509C0180911801909119012817390724F43093190174
:203260002093180108950E94E34C08952F923F924F925F926F927F928F929F92AF92BF921D
:20328000CF92DF92EF92FF920F931F93DF93CF93CDB7DEB728970FB6F894DEBF0FBECDBF03
:2032A000A090CB0BB090CC0BC090CD0BD090CE0B2090CF0B3090D00B4090D10B5090D20B02
:2032C0008091D30B9091D40BA091D50BB091D60B89839A83AB83BC832091F30B3091F40BC7
:2032E0004091F50B5091F60B6090F70B7090F80B8090F90B9090FA0B8091FB0B9091FC0BAE
:20330000A091FD0BB091FE0B8D839E83AF83B8878091870B882359F40F2EF0E0EF2EF0E0F3
:20332000FF2EF0E80F2FFFE31F2FF02D0AC00F2EF0E7EF2EF2E4FF2EF1E20F2FFDE31F2FC0
:20334000F02DC601B5010E9404C5A80197010E947AC8AB01BC018BEB93E022E00E94FF2A24
:203360008091870B882359F40F2EF0E0EF2EF0E0FF2EF0E80F2FFFE31F2FF02D0AC00F2E21
:20338000F0E7EF2EF2E4FF2EF1E20F2FFDE31F2FF02DC201B101A40193010E9404C5A80118
:2033A00097010E947AC8AB01BC0182EC93E022E00E94FF2A8091870B882359F40F2EF0E0D2
:2033C000EF2EF0E0FF2EF0E80F2FFFE31F2FF02D0AC00F2EF0E7EF2EF2E4FF2EF1E20F2F61
:2033E000FDE31F2FF02D69817A818B819C812D813E814F8158850E9404C5A80197010E940C
:203400007AC8AB01BC0186EC93E022E00E94FF2A2091C70B3091C80B4091C90B5091CA0BDD
:20342000A090940BB090950BC090960BD090970B8091870B882359F40F2EF0E0EF2EF0E055
:20344000FF2EF0E80F2FFFE31F2FF02D0AC00F2EF0E7EF2EF2E4FF2EF1E20F2FFDE31F2F9F
:20346000F02DCA01B9010E946CC6A60195010E947AC8A80197010E947AC8AB01BC018AECB1
:2034800093E022E00E943B2B28960FB6F894DEBF0FBECDBFCF91DF911F910F91FF90EF907C
:2034A000DF90CF90BF90AF909F908F907F906F905F904F903F902F9008950F931F9303E222
:2034C00014E0C8016DE00E94624EC8016AE00E94624E1F910F9108956F927F928F929F92DA
:2034E000AF92BF92CF92DF92EF92FF920F931F93DF93CF9300D000D0CDB7DEB76091880CF0
:203500007091890C80918A0C90918B0C2FE632E143E85AE30E947AC87B018C01CE010196D3
:2035200061E870E044E050E022EA38E10E94F317C801B70129813A814B815C810E9404C5D3
:20354000AB01BC0187E194E022E00E94FF2A88E394E00E94A129E091CC01F091CD01638599
:2035600074858585968520E030E040E751E40E94D8C718160CF47AC06624772443018DE73B
:2035800090E062EA78E10E940F187B018C01E60CF71C081D191DC801B70120E831E541E024
:2035A00050E00E94C5C9922E832E742E652E622F732F842F952F20E83EEA4EEF5FEF0E94FE
:2035C00050C95B016C01AE0CBF1CC01ED11E89E294E0492D582D672D762D0E94EB29C60119
:2035E000B50120E13EE040E050E00E94C5C9122F032FF42EE52E8BE394E0422F502F6F2D60
:203600007E2D0E94EB29612F702F8F2D9E2D20EF31EF4FEF5FEF0E9450C9A60EB71EC81EAE
:20362000D91EC601B5012CE330E040E050E00E94C5C982E494E0BA01A9010E94EB298AE414
:2036400094E00E94282A0F900F900F900F90CF91DF911F910F91FF90EF90DF90CF90BF903B
:20366000AF909F908F907F906F9008950E94E3C22091840C3091850C4091860C5091870C61
:20368000621B730B840B950B28EE33E040E050E00E94A3C9C901DA013C014D0170CF1F9358
:2036A000182FE0917502F091760244A555A566A577A58EEC93E022E00E94FF2AE091750236
:2036C000F091760240A951A962A973A98DEE93E020E00E94FF2A0E942338AB01BC0181ED5A
:2036E00093E022E00E94FF2A409196015091970160919801709199018DEE93E020E00E94F4
:20370000FF2A112391F084EE93E061E070E00E94FC296CEF7FE080918E0190918F01681B00
:20372000790B89EE93E00E94FC29E0918B01F0E0E85BFB4F60818FED93E070E00E94FC2913
:20374000E0911E01EF3F29F4E0917502F0917602E081F0E0E85BFB4F608185ED93E070E0D9
:203760000E94FC290E945D1A1F910895809164028823C1F0109264020E94364180911D01F9
:20378000815080931D01882349F480911C01833010F40E94F53A85E080931D018EE89FE0FE
:2037A0000E9428C0089508C00E94C8490E94B61B8EE89FE00E94B5998091810B8823A1F72F
:2037C0000895CF93DF9397FD10C0EC018F3F910521F01CF0CFEFD0E002C0009731F08091AD
:2037E000010C88608093010C07C08091010C877F8093010CC0E0D0E0662311F00E94D31B3F
:2038000080914B0490E0C817D90729F08DE094E0BE010E94C429C0934B04DF91CF910895C2
:203820002F923F924F925F926F927F928F929F92AF92BF92CF92DF92EF92FF920F931F93F6
:20384000DF93CF93CDB7DEB7E0970FB6F894DEBF0FBECDBF6C0180912702282F84FF19C063
:20386000D6018C9182FD09C081FF13C016968D919C9117978F36910561F00E94E3C260932E
:2038800040047093410480934204909343040C949F28F6010081118102FF75C38085918514
:2038A0008431910509F42DC28531910558F48430910520F4029708F040C020C0049709F0D6
:2038C00056C3E1C18A35910509F465C28B35910540F48531910509F418C24C9709F047C321
:2038E00017C28C35910509F45DC28C35910508F455C28C39910509F03AC30EC312FF12C00D
:20390000F601878D90A1A1A1B2A12091000C0097A105B10519F0822F806202C0822F8F7D0B
:203920008093000CC6010E944D6F882309F41FC381E061E00E9499651AC38091CB0B909192
:20394000CC0BA091CD0BB091CE0B89879A87AB87BC878091CF0B9091D00BA091D10BB09192
:20396000D20B8D879E87AF87B88B8091D30B9091D40BA091D50BB091D60B898B9A8BAB8B27
:20398000BC8BC6010E944D6F882309F4F0C2FE01319688E0DF011D928A95E9F7F6018281AB
:2039A00080FD05C020E030E040E050E007C0D60197962D913D914D915C919A978091870B6F
:2039C000882351F0CA01B90123E333E34BEC51E40E947AC89B01AC0129833A834B835C83AB
:2039E000F601828181FD05C020E030E040E050E007C0D6019B962D913D914D915C919E97CF
:203A00008091870B882351F0CA01B90123E333E34BEC51E40E947AC89B01AC012D833E836C
:203A20004F835887FE01759680E1DF011D928A95E9F78091CB0B9091CC0BA091CD0BB091B3
:203A4000CE0B8D8B9E8BAF8BB88F8091CF0B9091D00BA091D10BB091D20B898F9A8FAB8F3E
:203A6000BC8F8091D30B9091D40BA091D50BB091D60B8D8F9E8FAF8FB8A36091EF0B70910B
:203A8000F00B8091F10B9091F20B0E946CC62091940B3091950B4091960B5091970B0E94E4
:203AA0007AC869A37AA38BA39CA3F601828182FFC7C087A490A8A1A8B2A88091870B8823D8
:203AC00051F0C501B40123E333E34BEC51E40E947AC84B015C016D897E898F89988D29852D
:203AE0003A854B855C850E9403C56DA77EA78FA798AB698D7A8D8B8D9C8D2D853E854F85B3
:203B000058890E9403C52B013C01C501B40120E030E040E850E40E947AC8A50194010E9449
:203B20007AC87B018C016DA57EA58FA598A99B01AC010E947AC89B01AC01C801B7010E94F7
:203B400003C57B018C01C301B201A30192010E947AC89B01AC01C801B7010E9403C50E942C
:203B6000E7C87B018C016DA57EA58FA598A9A30192010E94E5C79B01AC0117FB109517F94E
:203B80001095C801B7010E94D1C57B018C01A80197010E9434C9882329F08FE494E00E9491
:203BA0002D2AE5C1D60118968D919C911997039721F417FB109517F91095C501B40120E0F2
:203BC00030E040E050E00E94CAC5882344F417FB109517F91095B7FAB094B7F8B094C30159
:203BE000B201A80197010E947AC89B01AC016DA57EA58FA598A90E9403C520E030E040E060
:203C00005FE30E947AC869837A838B839C836DA57EA58FA598A9A80197010E947AC89B01FD
:203C2000AC01C301B2010E9404C520E030E040E05FE30E947AC86D837E838F8398870CC0B1
:203C400069817A818B819C812D813E814F8158850E94E5C74B015C01E0E0D60118968D91E2
:203C60009C911997029709F4E1E0CE010996BE016B5E7F4FAE014F5F5F4F95018401EE2E0A
:203C80000E94445674C10E94D31BF6018081918193FD04C0EE24FF24870107C0D601939641
:203CA000ED90FD900D911C91969792FF0DC0F601678D70A181A192A128EE33E040E050E05A
:203CC0000E9450C97B018C010E94E3C25B016C01AE0CBF1CC01ED11E04C00E94C8490E9495
:203CE000B61B0E94E3C2A6019501261B370B480B590BDA01C90180509449A543B74768F3A2
:203D000036C181E08093870B32C11092870B2FC1C80188739070892B11F080E008C0C80125
:203D200056E0969587955A95E1F78095817006FF08C01092C70B1092C80B1092C90B10926B
:203D4000CA0B882321F041E051E061E01DC0D6012D913C91C90188739070892BC1F0C9010C
:203D600043E0969587954A95E1F7582F5170C90134E0969587953A95E1F7682F617025FD84
:203D800002C040E001C041E0852F0E94017480E00E94986AECC01092B90BE9C081E0809361
:203DA000B90BE5C0A090F30BB090F40BE090F50BF090F60B6090F70B7090F80B8090F90B33
:203DC0009090FA0B2090FB0B3090FC0B4090FD0B5090FE0B03FF21C0F6012285338544857E
:203DE00055858091870B882351F0CA01B90123E333E34BEC51E40E947AC89B01AC01CA0155
:203E0000B9012091CB0B3091CC0B4091CD0B5091CE0B0E9403C55B017C0104FF23C0D60166
:203E20001E962D913D914D915C9151978091870B882351F0CA01B90123E333E34BEC51E4F3
:203E40000E947AC89B01AC01CA01B9012091CF0B3091D00B4091D10B5091D20B0E9403C5B4
:203E60003B014C0105FF21C0F60122893389448955898091870B882351F0CA01B90123E3B1
:203E800033E34BEC51E40E947AC89B01AC01CA01B9012091D30B3091D40B4091D50B50912D
:203EA000D60B0E9403C51B012C01B501C7019301A401710182010E94776AD6018C9186FFC6
:203EC00056C056962D913D914D915C9159978091870B882351F0CA01B90123E333E34BEC32
:203EE00051E40E947AC89B01AC01CA01B9012091E7013091E8014091E9015091EA010E946F
:203F00007AC80E9439C66093C70B7093C80B8093C90B9093CA0B2BC080E061E040E00E94F6
:203F2000017400D000D020915A0C30915B0C40915C0C50915D0C8091FF0190910002A09145
:203F40000102B0910202EDB7FEB781839283A383B48360E87FE483EC97E47B018C015B0150
:203F60006C010E94BA720F900F900F900F900E94E3C2609340047093410480934204909348
:203F800043040C949F2801FD02C00C948D28D60116968D919C9117978237910509F4C9C607
:203FA0008337910508F081C08A32910509F47EC18B329105C8F58931910509F427C18A31EA
:203FC0009105C8F48631910509F404C18731910548F48431910509F4F3C0459711F00C947E
:203FE0009F28F3C08731910509F4F9C0489711F00C949F2806C18C31910509F42BC18D313B
:20400000910548F48A31910509F406C14B9711F00C949F281AC18E31910509F427C1809743
:2040200011F00C949F2831C18336910509F427C684369105D8F48435910509F49AC585356C
:20404000910550F48235910509F48CC58335910511F00C949F2889C58535910509F4A5C530
:204060008C35910511F00C949F28C0C58A36910509F45CC58B36910550F48836910509F49C
:204080005DC18936910511F00C949F2807C28D36910509F40DC28F36910509F430C68B3648
:2040A000910511F00C949F2853C58E3C910509F468C78F3C9105E8F58E3B910509F4E9C318
:2040C0008F3B9105D8F48537910509F435C68637910550F48337910509F424C6843791054B
:2040E00011F00C949F287DC48737910509F435C68C38910511F00C949F2896C18B3C910555
:2041000009F4E3C68C3C910550F4893C910509F450C68A3C910511F00C949F2890C68C3C07
:20412000910509F4E5C68D3C910511F00C949F2825C7B1E080399B0709F498C7E1E08139CB
:204140009E07E0F48D3D910509F480C78E3D910550F48F3C910509F418C78C3D910511F000
:204160000C949F2861C7F1E08F329F0709F4AAC48E55914011F00C949F28CAC731E0843F8C
:20418000930709F4ACC741E0853F940750F451E08139950709F46DC78259914009F0CFC75E
:2041A0006BC7B1E0863F9B0709F4AFC7E1E0863F9E0708F49CC7875F914009F0C0C7DEC6FD
:2041C00082EF9CE00E94B37ABAC782EF9CE00E94557EB5C782EF9CE00E94FB78B0C717FF35
:2041E000AEC782EF9CE060E00E947189D601D3966D917C91D49782EF9CE040E00E941C7A86
:204200009EC782EF9CE00E94137999C782EF9CE060E00E94877D93C712FF91C7F601478D5D
:2042200050A161A172A180915C0D882309F487C74093530D5093540D6093550D7093560DD6
:2042400082E39DE00E9402877AC782EF9CE00E94F77975C717FF73C7D601D3966D917C913A
:20426000D49782EF9CE00E94B87969C717FF67C782EF9CE060E00E947189F60163A974A9B6
:2042800082EF9CE00E9469795AC717FF58C782EF9CE060E00E947189D601D3966D917C9143
:2042A000D49782EF9CE00E943F7949C712FF47C713FF45C7F601878D90A1A1A1B2A1B7FD7A
:2042C0003EC78F3F9105A105B10511F00CF037C703A114A120E030E0F901EE0FFF1FE1556A
:2042E000FE4FE4918E2F90E08017910709F427C72F5F3F4F2833310579F717FD20C7802FEE
:2043000061E00E941AC4802FD6015F966C910E9497C4F601678D70A1802F0E949CC38AE74A
:2043200094E0B8010E94FC29D6015F966D917C91909786E894E00E94C42901C70E94A73ACF
:20434000882309F0FCC60E94E3C2609340047093410480934204909343048091270283FDB4
:20436000EEC6F6018081918193FD0AC092FF0AC0878D90A1A1A1B2A10097A105B10511F4F8
:204380000E94D31BD6018D919C91119792FFD7C65F968D909D90AD90BC9092979C01207077
:2043A000317091FF1EC05E960C91232B11F410E00FC010E0F601628D738D848D958D20E042
:2043C00030E040E050E00E94D8C718160CF411E0C501B4010E946CC6402F212F0E94F73E38
:2043E000AEC6E0917502F09176020081232B11F410E011C010E0D6015A966D917D918D91F2
:204400009C915D9720E030E040E050E00E94D8C718160CF411E0C501B4010E946CC6402FFD
:20442000212F0E94F73E8BC60E94A73A882309F086C60E94E3C260934004709341048093B8
:204440004204909343048091270283FD78C6F6018081918192FF73C6E78CF0A001A112A188
:2044600090FD02C0BB2412C0BB24D6015A966D917D918D919C915D9720E030E040E050E0EB
:204480000E94D8C7181614F4BB24B394C801B7010E946CC64B2D0E94303B51C683E0169580
:2044A00007958A95E1F7802F81700E944F1B47C60E94A73A882309F042C60E94E3C2609347
:2044C00040047093410480934204909343048091270283FD34C68EE89FE065E072E040E02D
:2044E0000E94BB988EE89FE00E9491B60E94D31B8090750290907602F6012081318131FFC0
:2045000007C0868D882321F41FE1812E11E0912E32FF27C0D6015F96ED90FD900D911C9169
:204520009297F401A08030FD02C0BB2412C0BB24D6015A966D917D918D919C915D9720E0AC
:2045400030E040E050E00E94D8C7181614F4BB24B394C801B7010E946CC64A2D2B2D0E9498
:20456000F73EF40164A575A586A597A520A931A942A953A90E9403C57B018C0120E030E07A
:2045800040E050E00E94D8C718165CF4C801B70120E030E040E050E40E94CAC5882364F4F3
:2045A000CEC5C801B70120E030E040E050EC0E94D8C718160CF4C3C53324D4019A962D916A
:2045C0003C919B9798968D919C9199978217930714F4332433940E94E3C269A77AA78BA730
:2045E0009CA744245524320110E00E94E3C26DA37EA38FA398A7DC01CB0129A53AA54BA545
:204600005CA5821B930BA40BB50B895E9340A040B04058F080E00E944F1B8DA19EA1AFA1F4
:20462000B8A589A79AA7ABA7BCA70E94B61B80917502909176028816990609F067C0D40131
:204640009396ED90FC9094971E141F040CF05EC0112309F05BC0332009F458C091966D91B9
:204660007C919297882777FD8095982F0E946CC69B01AC01F40164A575A586A597A50E94C7
:20468000D8C718160CF042C000D000D000D00DB71EB70F5F1F4F662777276E197F09882781
:2046A00077FD8095982F0E946CC62091E7013091E8014091E9015091EA010E947AC80E9486
:2046C00039C65B016C01F40187859089A189B289F80180839183A283B3831482158260E0BB
:2046E00070E080E090E020E030E040E050E0EE24FF2487010E94726911E02DB73EB72A5FAD
:204700003F4F0FB6F8943EBF0FBE2DBF411451046104710409F053C03320C9F0D401D0962D
:204720006D917D918D919C91D39720E030E040E85FE30E9403C59B01AC01F40164A575A573
:2047400086A597A50E94D8C787FF1AC04ECFD401D0966D917D918D919C91D39720E030E028
:2047600040E85FE30E9404C59B01AC01F40164A575A586A597A50E94CAC518160CF435CF39
:20478000D4015F966D917C919097882777FD8095982F28EE33E040E050E00E9450C92B01BE
:2047A0003C012DA13EA14FA158A5420E531E641E751E411451046104710409F416CFD30112
:2047C000C2012DA13EA14FA158A5821B930BA40BB50B80509449A543B74708F406CF11233A
:2047E00009F44AC080917502909176028816990609F042C000D000D000D00DB71EB70F5FE2
:204800001F4FD40193966D917C919497882777FD8095982F0E946CC62091E7013091E801E0
:204820004091E9015091EA010E947AC80E9439C65B016C01F40187859089A189B289F8012B
:2048400080839183A283B3831482158260E070E080E090E020E030E040E050E0EE24FF24C4
:2048600087010E9472692DB73EB72A5F3F4F0FB6F8943EBF0FBE2DBF1092CE0F0E94E3C276
:204880006093400470934104809342049093430456C423FD54C48EE89FE069EF71E040E0C6
:2048A0000E94BB988EE89FE00E9491B60E94D31BD6018D919C91119792FF21C05F96ED90E7
:2048C000FD900D911C91929790FD02C0BB2410C0BB24F601628D738D848D958D20E030E0D1
:2048E00040E050E00E94D8C7181614F4BB24B394C801B7010E946CC64B2D0E94303B609100
:204900009201709193018091940190919501209196013091970140919801509199010E94EA
:2049200003C57B018C0120E030E040E050E00E94D8C718165CF4C801B70120E030E040E4D2
:2049400050E40E94CAC5882364F4F9C3C801B70120E030E040E450EC0E94D8C718160CF4D3
:20496000EEC30E94E3C27B018C0114C00E94E3C26E197F09800B910B695E734080409040DB
:2049800038F080E00E944F1B0E94E3C27B018C010E94B61B60919201709193018091940101
:2049A0009091950120E030E040E05FE30E9404C520919601309197014091980150919901DD
:2049C0000E94CAC587FDD2CF1092CE0F0E94E3C26093400470934104809342049093430479
:2049E000AEC323FDACC30E94E3C24B015C010E94E3C2681979098A099B09695E734080400C
:204A0000904038F080E00E944F1B0E94E3C24B015C010E94B61BC090CC01D090CD01D601AD
:204A20001B96ED90FD900D911C911E97C801B70120E030E040EF51E40E94D8C71816A4F4BF
:204A4000C801B701F60127813085418552850E9403C59F7720E030E040E85FE30E94D8C7A9
:204A6000181614F4772402C077247394C090CE01D090CF01D6011B96ED90FD900D911C91D5
:204A80001E97C801B70120E030E040EF51E40E94D8C718169CF4C801B701F6012781308598
:204AA000418552850E9403C59F7720E030E040E85FE30E94D8C718160CF499CF772009F4F4
:204AC00096CF3DC312FD03C026E930E005C0D6015F962D913C91909713FD03C0CC24DD2479
:204AE0000AC0F601C3A0D4A0F2E0CF16D1041CF0B2E0CB2ED12CF601EE0FFF1FE453FE4F68
:204B0000E080F180B901882777FD8095982F0E946CC6AB01BC01E3E016950795EA95E1F76D
:204B20000170C7012C2D0E94973B09C312FD03C08FEF90E005C0D6015F968D919C919097E0
:204B4000612F66956695669561700E94E11BF7C2612F669566956695617080E090E00E94E8
:204B6000E11BEDC21092BA0BEAC281E08093BA0BE6C212FF14C0F601678D70A181A192A160
:204B800028EE33E040E050E00E9450C96093D1017093D2018093D3019093D401D0C20E9433
:204BA000D31B81E00E942F75CAC212FF16C0D6015F966D917D918D919C91929728EE33E078
:204BC00040E050E00E9450C960934404709345048093460490934704B2C210924404109278
:204BE00045041092460410924704A9C203FF0DC0F60182859385A485B5858093DB019093CE
:204C0000DC01A093DD01B093DE01D6018C9184FF0EC01E968D919D910D90BC91A02D809375
:204C2000DF019093E001A093E101B093E201F601808185FF0CC082899389A489B589809368
:204C4000E3019093E401A093E501B093E6010E94D975D6018C9186FF72C2E0917502F0911F
:204C6000760256962D913D914D915C915997218732874387548780810E94BD3F60C212FDB3
:204C800007C040E1842E47E2942EA12CB12C0DC0F601678D70A181A192A128EE33E040E07E
:204CA00050E00E9450C94B015C0103FD5E9A04FD5E9A05FD159A0E94E3C27B018C01E80C7A
:204CC000F91C0A1D1B1D02C00E947D750E94E3C2A8019701261B370B480B590BDA01C901A3
:204CE000805A9648A140B04078F3D6013C9133FD5E9834FD5E9835FF22C2159820C212FF17
:204D000004C0F601878D809327028091270283FF16C260E070E080E090E040E020E00E94D2
:204D2000F73E0DC286E192E00E94282A0E946C1A06C20E94361903C217FF01C2D601D396E3
:204D40006D917C91D4978EE89FE040E00E94E7988EE89FE00E9491B6F2C10E94D31B81E91C
:204D600094E00E94A129329B03C08EE894E002C08BE894E00E94A1298FE994E00E94A1296C
:204D8000339B03C08EE894E002C08BE894E00E94A1298DEA94E00E94A129349B03C08EE824
:204DA00094E002C08BE894E00E94A1290E945D1AC6C103FF0DC0F60182859385A485B58582
:204DC0008093070290930802A0930902B0930A02D6018C9184FF0EC01E968D919D910D901B
:204DE000BC91A02D80930B0290930C02A0930D02B0930E02F601808185FF0CC08289938944
:204E0000A489B58980930F0290931002A0931102B0931202D6018C9186FF0EC056968D91E0
:204E20009D910D90BC91A02D8093130290931402A0931502B09316020E94D97580C103FF54
:204E40000DC0F60182859385A485B5858093170290931802A0931902B0931A02D6018C9102
:204E600084FF0EC01E968D919D910D90BC91A02D80931B0290931C02A0931D02B0931E0204
:204E8000F601808185FF0CC082899389A489B58980931F0290932002A0932102B093220202
:204EA000D6018C9186FF0EC056968D919D910D90BC91A02D8093230290932402A0932502E1
:204EC000B09326020E94D9753AC112FF38C1F601278D30A141A152A11216130614061506AB
:204EE0001CF020931C012BC181E080931C0127C1809175029091760212FD03C0FC01B59636
:204F000010C0F601878D90A1A1A1B2A1B7FD17C10097A105B10519F4E4E4F1E002C0EBE836
:204F2000F1E003FF0BC0D6011A962D913D914D915C911D97228F338F448F558FD6018C9123
:204F400084FF0AC01E962D913D914D915C915197268F378F40A351A3D6018C9185FF0AC07D
:204F600052962D913D914D915C91559722A333A344A355A3CF010E94D737E1C00E946C2C31
:204F8000DEC0C6010E947735DAC003FF0DC0F60182859385A485B5858093720C9093730C49
:204FA000A093740CB093750CD6018C9186FF11C0E0917502F091760256962D913D914D91F9
:204FC0005C915997278B308F418F528F80810E94BD3FF601808185FF0CC082899389A48997
:204FE000B5898093760C9093770CA093780CB093790C4091720C5091730C6091740C709198
:20500000750C8BEB94E022E00E94FF2A4091760C5091770C6091780C7091790C81EC94E0C5
:2050200022E00E943B2B8BC012FD05C024E630E040E050E007C0D6015F962D913D914D91E0
:205040005C919297C9010E94D41879C012FD05C024E630E040E050E005C0F601278D30A12A
:2050600041A152A1C9010E94BF1869C00E94D31B66C00E94666B63C010FF08C0D6015A9605
:20508000CD90DD90ED90FC905D9708C0C0906A0CD0906B0CE0906C0CF0906D0CB80134E036
:2050A000769567953A95E1F76170A80125E0569547952A95E1F74170980196E0369527951E
:2050C0009A95E1F7217083E0169507958A95E1F7802F8170870176010E94957430C080E0FD
:2050E0000E94EC2E85E097E00E94472A28C00E940932E0917502F091760280810E94BD3FC0
:2051000085E297E00E94472A1AC00E94F23517C087EE91E00E94282A12C011FF07C00E94FF
:20512000D31BF601868D0E94BD3F09C022FF07C080EA93E00E94A129C6010E946544E09657
:205140000FB6F894DEBF0FBECDBFCF91DF911F910F91FF90EF90DF90CF90BF90AF909F904F
:205160008F907F906F905F904F903F902F900895CF93DF930E94C8490E945444EC018EE8E5
:205180009FE00E94B5992097D1F080915D0D882381F0888181FF04C08E819F814D9791F0B0
:2051A00082EF9CE0BE010E94597BCE010E94BE4803C0CE010E94101CCE010E94CF480E94CC
:2051C0007D75D8CF82EF9CE00E949879EECFCF93DF9320C080915D0D882381F0888181FF05
:2051E00004C08E819F814D9739F182EF9CE0BE010E94597BCE010E94BE4803C0CE010E94E1
:20520000101CCE010E94CF480E94B61B8EE89FE00E94B5998091810B882329F40E945444E3
:20522000EC01009771F00E94C8498EE89FE00E94B599209779F6E8CF82EF9CE00E94987974
:20524000D9CFDF91CF910895CF93DF93EC0105C0219683E294E00E94624E68816623C1F7A7
:20526000DF91CF910895AF92BF92CF92DF92EF92FF920F931F93DF93CF93CDB7DEB72B9748
:205280000FB6F894DEBF0FBECDBFC62ED92E1B869BE0A92EB12CAC0EBD1E6C2D9D2D2AE0FA
:2052A00030E040E050E00E94A3C9D52E7901042F152F80E3C80EC801B7012AE030E040E098
:2052C00050E00E9450C9C61AF501C2925F01CE2C7F2D802FE114F10401051105F1F6CF0147
:2052E0000E9424292B960FB6F894DEBF0FBECDBFCF91DF911F910F91FF90EF90DF90CF90BB
:20530000BF90AF900895EF92FF920F931F937B018C0197FF0DC083E294E06DE20E94624E16
:2053200010950095F094E094E11CF11C011D111DC801B7010E9433291F910F91FF90EF9008
:205340000895CF93DF93EC0104C083E294E00E94624EFE01649121966623B9F7DF91CF914C
:205360000895EF92FF920F931F937A018B010E94A129C801B7010E9433290E945D1A1F916F
:205380000F91FF90EF900895EF92FF920F931F937B010E94A1290027F7FC0095102FC801BD
:2053A000B7010E9483290E945D1A1F910F91FF90EF900895EF92FF920F931F937A018B0166
:2053C0000E94A129C801B7010E9433291F910F91FF90EF900895EF92FF920F931F937A0106
:2053E0008B010E94A129C801B7010E9483291F910F91FF90EF900895EF92FF920F931F9385
:205400007B010E94A1290027F7FC0095102FC801B7010E9483291F910F91FF90EF900895EC
:205420000F931F938B010E94A129C8010E9424291F910F9108950F931F938B010E94A1292F
:20544000C8010E9424290E945D1A1F910F9108950E94A1290E945D1A08950F931F938C018B
:205460008BE992E00E94A129C8010E94282A1F910F9108950F931F938C0182EA92E00E94CF
:20548000A129C8010E94282A1F910F9108950F931F938C0182EA92E00E94A129C8010E9402
:2054A000A1291F910F9108959F92AF92BF92CF92DF92EF92FF920F931F93CF93DF937B01EA
:2054C0008C01942EA80197010E9434C9882319F083E992E020C0C0E0D0E057016801E8949E
:2054E000D7F8C601B5012FEF3FEF4FE75FE70E9434C9882351F4C601B5012FEF3FEF4FE70A
:205500005FE70E94CAC5181614F0C1E0D0E0219729F087E992E00E94A12965C0C801B701CC
:2055200020E030E040E050E00E94CAC588234CF483E294E06DE20E94624E17FB109517F9AE
:20554000109520E030E040E05FE3DD240BC0CA01B90120E030E040E251E40E94D1C59B01A8
:20556000AC01D394D91498F3C801B7010E9404C55B016C010E943EC67B018C010E9433293D
:20558000992029F083E294E06EE20E94624EC801B7010E946AC69B01AC01C601B5010E9403
:2055A00003C51FC020E030E040E251E40E947AC87B018C010E9439C65B016C01CC24B7FCE3
:2055C000C094DC2CC601B5010E948329C601B5010E946CC69B01AC01C801B7010E9403C51F
:2055E0009A949920F9F6DF91CF911F910F91FF90EF90DF90CF90BF90AF909F900895DF920E
:20560000EF92FF920F931F937A018B01D22E0E94A129C801B7014D2D0E94542A1F910F9146
:20562000FF90EF90DF900895EF92FF920F931F93CF93DF93162F072FE42EF22E0E94A129FD
:20564000212F302FC901EC0110E00AC049915991699179918DE594E02F2D0E94FF2A1F5FD7
:205660001E15A0F30E945D1ADF91CF911F910F91FF90EF900895DF92EF92FF920F931F93A9
:205680007A018B01D22E0E94A129C801B7014D2D0E94542A0E945D1A1F910F91FF90EF9005
:2056A000DF9008959C01F999FECF32BD21BDF89A80B508959C01F999FECF1FBA32BD21BD0F
:2056C00060BD0FB6F894FA9AF99A0FBE0895885C904022E08835920778F464E670E00E9417
:2056E0007CC96F5F7F4F8CE897E00E94FC2983E294E060E20E94624E08950F931F93CF9357
:20570000DF93EC018B0182E997E0BE010E94FC2983E294E060E20E94624EF999FECFD2BDDB
:20572000C1BDF89A60B570E0882777FD8095982F0E94832983E294E060E20E94624ECE016B
:205740000E94672BC8010E94282ADF91CF911F910F910895CF92DF92EF92FF920F931F9363
:205760008C016B0189E997E0B8010E94FC2983E2E82E84E0F82EC70160E20E94624EC8019D
:2057800062E57BE20E943518AA2797FDA095BA2FBC01CD010E948329C70160E20E94624EBE
:2057A000C8010E94672BC6010E94282A1F910F91FF90EF90DF90CF900895CF92DF92EF9215
:2057C000FF920F931F938C016B0180EA97E0B8010E94FC2993E2E92E94E0F92EC70160E259
:2057E0000E94624EC80162E57BE20E940F180E948329C70160E20E94624EC8010E94672B7A
:20580000C6010E94282A1F910F91FF90EF90DF90CF900895F999FECF12BC11BCF89A80B543
:20582000823071F48BE490E062E57BE20E940F186093D5017093D6018093D7019093D8017B
:205840000895DF93CF9300D000D0CDB7DEB7BC01CE01019644E050E022E53BE20E94F317D7
:2058600029813A814B815C81B901CA010F900F900F900F90CF91DF910895BF92CF92DF9289
:20588000EF92FF920F931F938C016B01B42E87EA97E0B8010E94FC2923E2E22E24E0F22E26
:2058A000C70160E20E94624EC8010E94212C4B2D0E94542AC70160E20E94624EC8010E9475
:2058C000672BC6010E94282A1F910F91FF90EF90DF90CF90BF9008958BE490E06EEA77E0D5
:2058E0000E94DD2B81E890E067EB77E043E00E943D2C8DE790E06CEC77E00E94DD2B8FE49E
:2059000090E06FED77E00E94DD2B83E590E06DEF77E00E94DD2B83E090E060EE78E044E0E8
:205920000E943D2C87E090E064EF78E044E00E943D2C8BE090E068E079E044E00E943D2C00
:205940008FE090E06CE179E043E00E943D2C83E190E068E379E043E00E943D2C87E190E016
:2059600064E579E043E00E943D2C8BE190E060E779E043E00E943D2C8FE190E06EE879E01E
:2059800043E00E943D2C83E290E06CEA79E043E00E943D2C87E290E06CEB78E043E00E94DA
:2059A0003D2C8FE290E06DEC78E043E00E943D2C85E890E066E278E043E00E943D2C89E8A2
:2059C00090E066E378E043E00E943D2C8DE890E066E478E043E00E943D2C81E990E066E5AE
:2059E00078E043E00E943D2C85E990E068E678E043E00E943D2C89E990E06AE778E043E0C1
:205A00000E943D2C83E390E06AEC79E043E00E943D2C87E390E067EE79E043E00E943D2C12
:205A20008BE390E064E07AE043E00E943D2C8FE390E061E27AE043E00E943D2C83E490E038
:205A400065E47AE043E00E943D2C87E490E069E67AE043E00E943D2C80E793E06EEE76E037
:205A60000E947D2B8AE690E06AE37BE00E947D2B8BE690E061E57BE00E947D2B8CE790E05B
:205A800063E67BE00E947D2B8CE690E065E77BE043E00E943D2C80E790E064E87BE043E0C0
:205AA0000E943D2C84E790E063E97BE043E00E943D2C88E790E062EA7BE00E947D2B88ECE7
:205AC00090E06CEB7BE043E00E943D2C8CEC90E069EC7BE043E00E943D2C80ED90E06EED78
:205AE0007BE043E00E943D2C84ED90E064EF7BE043E00E943D2C88ED90E06AE07CE00E9433
:205B00007D2B89ED90E06DE17CE00E947D2B85EF90E06BE27CE00E947D2B8AED90E069E3F9
:205B20007CE044E00E943D2C8EED90E06EE47CE044E00E943D2C82EE90E069E57CE044E064
:205B40000E943D2C86EE90E064E67CE00E947D2B87EE90E06AE77CE00E94DD2B8BEE90E041
:205B60006BE87CE00E94DD2B8FEE90E06CE97CE00E94AA2B8AEF90E065EB7CE00E94AA2BAB
:205B80008CEF90E06BED7CE00E94AA2B8EEF90E061E07DE00E947D2B0895DF93CF9300D0D9
:205BA00000D0CDB7DEB749835A836B837C83BE016F5F7F4F44E050E02AE53BE20E944B1886
:205BC0000F900F900F900F90CF91DF91089588E293E040E050E060E272E40E94CD2D8CE20D
:205BE00093E040E050E060E070E40E94CD2D88E493E040E050E066E173E40E94CD2D80E2E7
:205C000093E040E050E060E070E00E94CD2D84E293E040E050E060E070E00E94CD2D80E3DD
:205C200093E040E050E060EA71E40E94CD2D84E393E040E050E060EA71E40E94CD2D88E396
:205C400093E040E050E060E273E40E94CD2D8CE393E040E050E060EA71E40E94CD2D80E47B
:205C600093E040E050E068EC72E40E94CD2D84E493E040E050E060E273E40E94CD2D81EA50
:205C800093E040E050E060E271E40E94CD2D0895EF92FF920F931F936091880C7091890CF0
:205CA00080918A0C90918B0C20E030E040E050E00E94CAC5882309F48AC00E94E3C220910A
:205CC000840C3091850C4091860C5091870C621B730B840B950B28EE33E040E050E00E94C6
:205CE000A3C979018A018DE790E062E57BE20E940F18E60EF71E081F191F8DE790E0B801DD
:205D0000A7012AE53BE20E94671881E890E00E94212C7B018C016091880C7091890C809191
:205D20008A0C90918B0C2FE632E143E85AE30E947AC89B01AC01C801B7010E9404C5AB01C0
:205D4000BC0181E890E00E94CD2D80E090E0A0E0B0E08093880C9093890CA0938A0CB093C6
:205D60008B0C0E94E3C26093840C7093850C8093860C9093870C20E030E040E0283631050F
:205D800039F0F999FECF32BD21BDF89A80B5480F2F5F3F4F88E02030380781F7F999FECFA6
:205DA00088E690E092BD81BDF89A80B5481769F0F999FECF1FBA88E690E092BD81BD40BD59
:205DC0000FB6F894FA9AF99A0FBE0E946C1A1F910F91FF90EF900895FF920F931F93CF9314
:205DE000DF93F82E4091D5015091D6016091D7017091D8018BE490E02AE53BE20E946718DD
:205E0000409144045091450460914604709147048FE490E02AE53BE20E9467184091D101E5
:205E20005091D2016091D3017091D40183E590E02AE53BE20E9467184091DB015091DC0183
:205E40006091DD017091DE0183E090E00E94CD2D4091DF015091E0016091E1017091E201FA
:205E600087E090E00E94CD2D4091E3015091E4016091E5017091E6018BE090E00E94CD2DFE
:205E80004091EB015091EC016091ED017091EE018FE090E00E94CD2D4091EF015091F0019A
:205EA0006091F1017091F20183E190E00E94CD2D4091F3015091F4016091F5017091F60121
:205EC00087E190E00E94CD2D4091FB015091FC016091FD017091FE018BE190E00E94CD2D3C
:205EE0004091FF015091000260910102709102028FE190E00E94CD2D4091030250910402BC
:205F0000609105027091060283E290E00E94CD2D4091720C5091730C6091740C7091750C6D
:205F200087E290E00E94CD2D4091760C5091770C6091780C7091790C8FE290E00E94CD2DBD
:205F400040910702509108026091090270910A0283E390E00E94CD2D40910B0250910C0234
:205F600060910D0270910E0287E390E00E94CD2D40910F02509110026091110270911202AC
:205F80008BE390E00E94CD2D40911702509118026091190270911A028FE390E00E94CD2DFB
:205FA00040911B0250911C0260911D0270911E0283E490E00E94CD2D40911F02509120025B
:205FC000609121027091220287E490E00E94CD2D20919E01F999FECF1FBA8AE690E092BD5A
:205FE00081BD20BD0FB6F894FA9AF99A0FBE2091A301F999FECF1FBA8BE690E092BD81BD46
:2060000020BD0FB6F894FA9AF99A0FBE2091A401F999FECF1FBA8CE790E092BD81BD20BD83
:206020000FB6F894FA9AF99A0FBE4091A5015091A6016091A7017091A8018CE690E00E9455
:20604000CD2D4091A9015091AA016091AB017091AC0180E790E00E94CD2D4091AD01509121
:20606000AE016091AF017091B00184E790E00E94CD2D2091B101F999FECF1FBA88E790E02D
:2060800092BD81BD20BD0FB6F894FA9AF99A0FBE4091560C5091570C6091580C7091590C1F
:2060A00085E890E00E94CD2D40915E0C50915F0C6091600C7091610C89E890E00E94CD2D98
:2060C0004091660C5091670C6091680C7091690C8DE890E00E94CD2D4091520C5091530C5E
:2060E0006091540C7091550C81E990E00E94CD2D40915A0C50915B0C60915C0C70915D0C35
:2061000085E990E00E94CD2D4091620C5091630C6091640C7091650C89E990E00E94CD2D25
:206120008DE990E040E050E060E070E00E94CD2D81EA90E040E050E060E070E00E94CD2DA6
:2061400085EA90E040E050E060E070E00E94CD2D2091FF0BF999FECF1FBA80E793E092BDC8
:2061600081BD822F90E045E0969587954A95E1F7817080BD0FB6F894FA9AF99A0FBE02E048
:206180001CE0C0E0D0E0CE01880F991F880F991FF80141915191619171918F01845B9C4F4B
:2061A0000E94CD2D2196C930D10569F7409128015091290160912A0170912B0188EC90E02B
:2061C0000E94CD2D40912E0150912F0160913001709131018CEC90E00E94CD2D4091360131
:2061E00050913701609138017091390180ED90E00E94CD2D40913201509133016091340169
:206200007091350184ED90E00E94CD2D20915701F999FECF1FBA88ED90E092BD81BD20BD3A
:206220000FB6F894FA9AF99A0FBE20915C01F999FECF1FBA89ED90E092BD81BD20BD0FB6BE
:20624000F894FA9AF99A0FBE20915D01F999FECF1FBA85EF90E092BD81BD20BD0FB6F894D8
:20626000FA9AF99A0FBE40915E0150915F0160916001709161018AED90E00E94CD2D4091B0
:2062800062015091630160916401709165018EED90E00E94CD2D40916601509167016091A0
:2062A00068017091690182EE90E00E94CD2D20916A01F999FECF1FBA86EE90E092BD81BDC9
:2062C00020BD0FB6F894FA9AF99A0FBE4091200150912101609122017091230187EE90E089
:2062E0002AE53BE20E946718409124015091250160912601709127018BEE90E02AE53BE2FE
:206300000E94671860913E0170913F018FEE90E04AE55BE20E948D186091400170914101D6
:206320008AEF90E04AE55BE20E948D1860914201709143018CEF90E04AE55BE20E948D18AA
:2063400020918901F999FECF1FBA8EEF90E092BD81BD20BD0FB6F894FA9AF99A0FBE81EFBE
:2063600090E040E050E060E070E00E94CD2D86EF90E040E050E060E070E00E94CD2DFF20B1
:20638000A1F08DE790E040E050E060E070E02AE53BE20E94671881E890E040E050E060E0F2
:2063A00070E00E94CD2D0E94E72DF999FECF1FBA89E690E092BD81BD87E080BD0FB6F894A2
:2063C000FA9AF99A0FBE20E030E040E02836310539F0F999FECF32BD21BDF89A80B5480F92
:2063E0002F5F3F4FF8E020303F0781F7F999FECF1FBA88E690E092BD81BD40BD0FB6F894AA
:20640000FA9AF99A0FBEDF91CF911F910F91FF900895DF92EF92FF920F931F93CF93DF9391
:20642000F999FECF89E690E092BD81BDF89AD0B48BE490E062E57BE20E940F186093D50166
:206440007093D6018093D7019093D8018FE490E062E57BE20E940F186093440470934504A4
:20646000809346049093470483E590E062E57BE20E940F186093D1017093D2018093D3018A
:206480009093D40183E090E00E94212C6093DB017093DC018093DD019093DE0187E090E0C9
:2064A0000E94212C6093DF017093E0018093E1019093E2018BE090E00E94212C6093E3019A
:2064C0007093E4018093E5019093E6018FE090E00E94212C6093EB017093EC018093ED0133
:2064E0009093EE0183E190E00E94212C6093EF017093F0018093F1019093F20187E190E0FD
:206500000E94212C6093F3017093F4018093F5019093F6018BE190E00E94212C6093FB01D0
:206520007093FC018093FD019093FE018FE190E00E94212C6093FF0170930002809301024B
:206540009093020283E290E00E94212C6093030270930402809305029093060287E290E031
:206560000E94212C6093720C7093730C8093740C9093750C8FE290E00E94212C6093760CBD
:206580007093770C8093780C9093790C83E390E00E94212C6093070270930802809309024A
:2065A00090930A0287E390E00E94212C60930B0270930C0280930D0290930E028BE390E09F
:2065C0000E94212C60930F027093100280931102909312028FE390E00E94212C6093170279
:2065E000709318028093190290931A0283E490E00E94212C60931B0270931C0280931D02E8
:2066000090931E0287E490E00E94212C60931F02709320028093210290932202F999FECF58
:206620008AE690E092BD81BDF89A80B580939E01F999FECF8BE690E092BD81BDF89A80B5E0
:206640008093A301F999FECF8CE790E092BD81BDF89A80B58093A4018CE690E00E94212C64
:206660006093A5017093A6018093A7019093A80180E790E00E94212C6093A9017093AA013F
:206680008093AB019093AC0184E790E00E94212C6093AD017093AE018093AF019093B001B7
:2066A000F999FECF88E790E092BD81BDF89A80B58093B10185E890E00E94212C6093560C62
:2066C0007093570C8093580C9093590C89E890E00E94212C60935E0C70935F0C8093600C3B
:2066E0009093610C8DE890E00E94212C6093660C7093670C8093680C9093690C81E990E062
:206700000E94212C6093520C7093530C8093540C9093550C85E990E00E94212C60935A0CBA
:2067200070935B0C80935C0C90935D0C89E990E00E94212C6093620C7093630C8093640CC1
:206740009093650C82E08D1508F050C002E01CE07801C0E0D0E0CE01880F991F880F991F85
:20676000845B9C4F0E94212CF70161937193819391937F012196C930D10569F72091020C13
:206780003091030C4091040C5091050CCA01B9010E9434C98823A1F0CCE4D3E0CE01880F2D
:2067A000991F880F991F0E94212CF80161937193819391938F012196F3E0C535DF0771F758
:2067C000F999FECF80E793E092BD81BDF89A80B590E0811191E0892F0E94B66B82EA92E060
:2067E00062E07CE049E026E00E94142B88EC90E00E94212C609328017093290180932A0191
:2068000090932B018CEC90E00E94212C60932E0170932F01809330019093310180ED90E087
:206820000E94212C6093360170933701809338019093390184ED90E00E94212C6093320165
:20684000709333018093340190933501F999FECF88ED90E092BD81BDF89A80B5809357015D
:20686000F999FECF89ED90E092BD81BDF89A80B580935C01F999FECF85EF90E092BD81BD3F
:20688000F89A80B580935D018AED90E00E94212C60935E0170935F0180936001909361013C
:2068A0008EED90E00E94212C6093620170936301809364019093650182EE90E00E94212C71
:2068C00060936601709367018093680190936901F999FECF86EE90E092BD81BDF89A80B553
:2068E00080936A0187EE90E062E57BE20E940F186093200170932101809322019093230112
:206900008BEE90E062E57BE20E940F18609324017093250180932601909327018FEE90E06E
:2069200062E57BE20E94351890933F0180933E018AEF90E062E57BE20E943518909341012E
